:020000040000FA
:100000000C9458000C9480000C9480000C94800098
:100010000C9480000C9480000C9480000C94800060
:100020000C9480000C9480000C9480000C94800050
:100030000C9480000C9480000C9480000C94800040
:100040000C9421050C9480000C9491050C946B0584
:100050000C9480000C9480000C9480000C94800020
:100060000C94C3050C9480000000000025002800BB
:100070002B00040404040404040402020202020229
:10008000030303030303010204081020408001025C
:1000900004081020010204081020000000080002DB
:1000A0000100000304070000000000000000E20659
:1000B00011241FBECFEFD8E0DEBFCDBF23E0A0EB01
:1000C000B1E001C01D92AC32B207E1F711E0A0E04F
:1000D000B1E0E2EFF6E102C005900D92A03BB1075E
:1000E000D9F710E0C8E5D0E004C02197FE010E94D6
:1000F0007609C735D107C9F70E942A070C94770BF8
:100100000C94000090E0FC01E656FF4F2491FC01A6
:10011000EA57FF4F3491FC01EE58FF4FE491EE2374
:10012000C9F0222339F0233001F1A8F4213019F16C
:10013000223029F1F0E0EE0FFF1FE859FF4FA591A3
:10014000B4918FB7F894EC91611126C030953E239D
:100150003C938FBF08952730A9F02830C9F0243090
:1001600049F7809180008F7D03C0809180008F7758
:1001700080938000DFCF84B58F7784BDDBCF84B5DB
:100180008F7DFBCF8091B0008F778093B000D2CF6E
:100190008091B0008F7DF9CF3E2BDACF3FB7F89436
:1001A00080916B0290916C02A0916D02B0916E02F1
:1001B00026B5A89B05C02F3F19F00196A11DB11DC2
:1001C0003FBFBA2FA92F982F8827BC01CD01620FFE
:1001D000711D811D911D42E0660F771F881F991FB9
:1001E0004A95D1F708958F929F92AF92BF92CF9286
:1001F000DF92EF92FF924B015C010E94CE006B01F7
:100200007C010E94CE006C197D098E099F09683E11
:10021000734081059105A8F321E0821A9108A10895
:10022000B10888EEC80E83E0D81EE11CF11C8114D1
:100230009104A104B10429F7FF90EF90DF90CF90D3
:10024000BF90AF909F908F90089508950895AF92BA
:10025000BF92CF92DF92EF92FF920F931F93CF93B3
:10026000DF936C017B018B01040F151FEB015E0115
:10027000AE18BF08C017D10759F06991D601ED91AA
:10028000FC910190F081E02DC6010995892B79F749
:10029000C501DF91CF911F910F91FF90EF90DF90FB
:1002A000CF90BF90AF900895FC01538D448D252FC2
:1002B00030E0842F90E0821B930B541710F0CF9600
:1002C000089501970895FC01918D828D981761F032
:1002D000A28DAE0FBF2FB11D5D968C91928D9F5F49
:1002E0009F73928F90E008958FEF9FEF08952FB73F
:1002F000F89480916F0290917002A0917102B09178
:1003000072022FBF80937B0290937C02A0937D02A8
:10031000B0937E0283E792E00E94630197FF26C0BC
:100320002FB7F89480916F0290917002A0917102A2
:10033000B09172022FBF40917B0250917C0260917C
:100340007D0270917E02841B950BA60BB70B40912A
:100350007702509178026091790270917A02841745
:100360009507A607B707B0F28FEF9FEF0895FC013E
:10037000918D828D981731F0828DE80FF11D858D5A
:1003800090E008958FEF9FEF0895FC01918D228DED
:10039000892F90E0805C9F4F821B91098F73992772
:1003A000089583E792E00E94C50121E0892B09F4BA
:1003B00020E0822F089580E090E0892B29F00E94B0
:1003C000D10181110C9400000895FC01A48DA80FA7
:1003D000B92FB11DA35ABF4F2C91848D90E0019687
:1003E0008F739927848FA689B7892C93A089B189A7
:1003F0008C91837080648C93938D848D981306C048
:100400000288F389E02D80818F7D80830895EF92AB
:10041000FF920F931F93CF93DF93EC0181E0888FBE
:100420009B8D8C8D98131AC0E889F989808185FF8E
:1004300015C09FB7F894EE89FF896083E889F98930
:1004400080818370806480839FBF81E090E0DF9132
:10045000CF911F910F91FF90EF900895F62E0B8D85
:1004600010E00F5F1F4F0F731127E02E8C8D8E1140
:100470000CC00FB607FCFACFE889F989808185FFA7
:10048000F5CFCE010E94E501F1CFEB8DEC0FFD2FF2
:10049000F11DE35AFF4FF0829FB7F8940B8FEA8962
:1004A000FB8980818062CFCFCF93DF93EC01888D71
:1004B0008823B9F0AA89BB89E889F9898C9185FDDF
:1004C00003C0808186FD0DC00FB607FCF7CF8C916D
:1004D00085FFF2CF808185FFEDCFCE010E94E5013F
:1004E000E9CFDF91CF91089508952091F101260F72
:1004F0003327331F21323105ECF420913A02FC01FD
:1005000090E080E0243069F082E00895A091F1014C
:100510002191AC014F525E4FA40FB52FB11D2C930A
:100520000196861798F38091F101680F6093F101AD
:1005300080E0089581E0089510923A0281E080936E
:1005400039021092140261E082E10E94820061E0AF
:1005500083E10E948200E9EBF0E080818E7F80835E
:1005600080818D7F808388E48093B80085E48093C8
:10057000BC000895CF93DF9391E09093D00188233E
:10058000B9F0C091B800D091BA008091BC008A7BCC
:100590008093BC0060E082E10E94820060E083E121
:1005A0000E9482000E949C02D093BA00C093B800BF
:1005B000DF91CF9108950895E091690280916802DA
:1005C000E81730F4F0E0E055FE4F808190E00895A8
:1005D0008FEF9FEF089590916902809168022FEF4D
:1005E0003FEF981748F4E92FF0E0E055FE4F2081E7
:1005F00030E09F5F90936902C9010895809168027D
:1006000090916902891B990B0895CF92DF92EF9226
:10061000FF920F931F93CF93DF937C01CB018A014D
:1006200020914002222389F0EB016B01C40ED51EFC
:10063000CC15DD0569F06991D701ED91FC91019030
:10064000F081E02DC7010995F3CF642F0E94750258
:10065000C801DF91CF911F910F91FF90EF90DF9034
:10066000CF900895CF93DF931F92CDB7DEB7698304
:10067000209140022223F9F020916602203258F0A6
:1006800021E030E0FC013383228390E080E00F9092
:10069000DF91CF91089580916702E82FF0E0EF5B42
:1006A000FD4F998190838F5F8093670280936602EC
:1006B00081E090E0ECCF61E0CE0101960E947502EE
:1006C000F7CFCF92DF92EF92FF920F931F93CF93CA
:1006D000DF93FC01C48121E020934002C0936102BA
:1006E00010926702109266028385682B80E193E086
:1006F0000E943203D0916602D13208F092C00E946B
:10070000CE006B017C0180913A02811165C082E0CC
:1007100080933A0281E0809339028FEF8093380210
:1007200010923702D0933602A1E4B2E0E6E1F2E0A3
:1007300080E0D81385C01092150280911502CC0F6D
:10074000C82BC093150280911402813009F07CC03F
:10075000109214020E94CE006B017C018091150260
:100760008093BB0080913C0290913D02A0913E029B
:10077000B0913F02892B8A2B8B2B99F00E94CE00DF
:1007800000913C0210913D0220913E0230913F02C7
:100790006C197D098E099F09061717072807390765
:1007A000E0F18091BC0083FDD9CF85EC8093BC0043
:1007B0000E94CE006B017C0180913A02823009F4E4
:1007C00045C0809138028F3F61F1809138028032BC
:1007D00041F18091380225C080913C0290913D0208
:1007E000A0913E02B0913F02892B8A2B8B2B09F4FA
:1007F0008ACF0E94CE0000913C0210913D022091D0
:100800003E0230913F026C197D098E099F0906173F
:1008100017072807390708F076CF80913B020E941E
:10082000BA02109267021092660210924002DF91A3
:10083000CF911F910F91FF90EF90DF90CF9008958F
:100840009D9191938F5F75CF85EEB0CF80913C02E3
:1008500090913D02A0913E02B0913F02892B8A2BDC
:100860008B2B09F4A9CF0E94CE0000913C0210917D
:100870003D0220913E0230913F026C197D098E09A4
:100880009F09061717072807390708F095CFC5CF26
:1008900090E080E00895FB0101900020E9F7319796
:1008A000AF01461B570BDC01ED91FC910280F381F7
:1008B000E02D09940F931F93CF93DF93EC01888170
:1008C0009981009759F02A813B812617370730F02C
:1008D00081E0DF91CF911F910F9108958B016F5FA0
:1008E0007F4F0E94A10A009759F0998388831B8348
:1008F0000A832C813D81232B59F7FC011082E8CF1C
:1009000080E0E7CF0F931F93CF938C01C62F0E94F7
:1009100061036C2F6460C8010E9461036C2F6B7FC0
:10092000C8010E94610383EC90E00197F1F7CF9139
:100930001F910F9108950F931F93CF93DF938C0115
:10094000D62FC42F607F642B0E94820480E1D89F41
:10095000B00111246C2BC801DF91CF911F910F9131
:100960000C948204CF93DF93CDB7DEB728970FB6F0
:10097000F894DEBF0FBECDBF98E0E6E0F1E0DE0107
:10098000119601900D929A95E1F790912403981792
:1009900008F48FEF90E0880F991F21E030E02C0FD2
:1009A0003D1F820F931FFC016081606840E08CE175
:1009B00093E028960FB6F894DEBF0FBECDBFDF914F
:1009C000CF910C949B0441E00E949B0481E090E055
:1009D000089585ED8093BC0080913C0290913D028A
:1009E000A0913E02B0913F020796A11DB11D23E0E8
:1009F000B695A795979587952A95D1F72091BC0034
:100A000024FD03C010923A02089540913C02509197
:100A10003D0260913E0270913F02452B462B472BD1
:100A200069F30097A105B10541F02AE22A95F1F793
:100A300000C00197A109B109E1CF80913B020C945C
:100A4000BA021F920F920FB60F9211242F933F9369
:100A50008F939F93AF93BF9380916F029091700299
:100A6000A0917102B091720230916A0223E0230FCB
:100A70002D3758F50196A11DB11D20936A02809370
:100A80006F0290937002A0937102B09372028091F2
:100A90006B0290916C02A0916D02B0916E02019672
:100AA000A11DB11D80936B0290936C02A0936D0207
:100AB000B0936E02BF91AF919F918F913F912F9113
:100AC0000F900FBE0F901F90189526E8230F0296E7
:100AD000A11DB11DD2CF1F920F920FB60F921124FC
:100AE0002F933F934F935F936F937F938F939F9336
:100AF000AF93BF93EF93FF9383E792E00E94E501EA
:100B0000FF91EF91BF91AF919F918F917F916F91E5
:100B10005F914F913F912F910F900FBE0F901F90BB
:100B200018951F920F920FB60F9211242F938F9347
:100B30009F93EF93FF93E0918302F0918402808171
:100B4000E0918902F0918A0282FD1BC09081809120
:100B50008C028F5F8F7320918D02821741F0E0919C
:100B60008C02F0E0ED58FD4F958F80938C02FF9141
:100B7000EF919F918F912F910F900FBE0F901F902B
:100B800018958081F4CF1F920F920FB60F92112407
:100B90002F933F934F935F936F937F938F939F9385
:100BA000AF93BF93EF93FF938091B900887F803616
:100BB00009F44AC0F0F5883209F4A7C018F580316D
:100BC00009F49BC0B8F4882309F4F9C0883009F40B
:100BD00094C0FF91EF91BF91AF919F918F917F91C1
:100BE0006F915F914F913F912F910F900FBE0F909A
:100BF0001F901895883109F488C0803251F780938E
:100C0000380214C0803409F49DC040F48033B9F335
:100C10008833F9F68093380285ECB0C0803509F44A
:100C200085C0883509F496C0883499F60E94E90495
:100C3000D0CF883909F48CC038F5883729F050F4C2
:100C4000883611F0803729F683E080933A021092BB
:100C5000130257C0883809F47BC0803919F08038F6
:100C600009F0B7CF80911302803208F071C0E09193
:100C7000130281E08E0F809313028091BB00F0E09D
:100C8000ED50FE4F80833DC0803B39F0E0F4803A68
:100C900009F479C0883A09F09CCF84E080933A0245
:100CA0001092F2011092F101E0916402F09165025C
:100CB00009958091F10181110FC081E08093F101CC
:100CC0001092D10109C0803C09F4A6CF883C09F4F8
:100CD000A3CF883B09F07DCFE091F20181E08E0F38
:100CE0008093F201F0E0EF52FE4F80818093BB00D1
:100CF0009091F2018091F10129C0809115028093B9
:100D0000BB0085EC8093BC0064CF9091370280914A
:100D10003602981758F5E091370281E08E0F8093E4
:100D20003702F0E0EA5EFD4F8081E9CFE0913702C3
:100D300081E08E0F809337028091BB00F0E0EA5E85
:100D4000FD4F808390913702809136029817C8F248
:100D500085E8D8CFE091370281E08E0F809337028B
:100D60008091BB00F0E0EA5EFD4F80838091390204
:100D700081115CCF81E08093140284EA8093BC00EF
:100D800010923A0226CF85EC8093BC0010923A0272
:100D900080911302803230F4E0911302F0E0ED50C4
:100DA000FE4F10826091130270E0E0916202F091B8
:100DB000630283EF91E00995109213020ACF10921B
:100DC000380234CFE3E7F2E01382128288EE93E038
:100DD000A0E0B0E084839583A683B78322E131E06D
:100DE0003183208325EC30E03587248724EC30E004
:100DF0003787268720EC30E0318B208B21EC30E0E8
:100E0000338B228B22EC30E0358B248B26EC30E0C8
:100E1000378B268B118E128E138E148EE0E1F3E049
:100E20001382128284839583A683B78384E291E040
:100E300091838083ECE1F3E01382128286E391E0F8
:100E40009183808387E2848380E1818782E0828747
:100E500013860895CF93DF93CDB7DEB728970FB6EB
:100E6000F894DEBF0FBECDBF789484B5826084BD98
:100E700084B5816084BD85B5826085BD85B581609E
:100E800085BD80916E00816080936E00109281001C
:100E900080918100826080938100809181008160D7
:100EA0008093810080918000816080938000809198
:100EB000B10084608093B1008091B0008160809324
:100EC000B00080917A00846080937A0080917A00EB
:100ED000826080937A0080917A00816080937A00AA
:100EE00080917A00806880937A001092C100E0912E
:100EF0008302F091840282E08083E0917F02F0918E
:100F000080021082E0918102F09182028FEC808356
:100F100010928B02E0918702F091880286E0808334
:100F2000E0918502F0918602808180618083E0916A
:100F30008502F0918602808188608083E09185023D
:100F4000F0918602808180688083E0918502F09133
:100F5000860280818F7D80831092690210926802E0
:100F600010926702109266020E949C0285E291E054
:100F7000909365028093640286E291E0909363020D
:100F8000809362021092210380912603823018F030
:100F900098E0909321038093240362E370E080E063
:100FA00090E00E94F300609127038CE193E00E949F
:100FB000610368EE73E080E090E00E94F30060E37C
:100FC0008CE193E00E9482040BE416E4C8010197CF
:100FD000F1F760E38CE193E00E948204C80101977D
:100FE000F1F760E38CE193E00E94820483E592E0F4
:100FF0000197F1F760E28CE193E00E948204609136
:101000002103606240E08CE193E00E949B0484E055
:101010008093220340E06CE08CE193E00E949B040B
:1010200040E061E08CE193E00E949B040BE31FE150
:10103000C8010197F1F782E08093230340E066E066
:101040008CE193E00E949B0440E062E08CE193E03D
:101050000E949B04C8010197F1F788E08093270361
:1010600060E08CE193E00E94610380E00E94B204A2
:101070006EE371E08CE193E00E944B048BE3A82EB9
:101080008FE1B82E90E0692E90E0792E83E792E010
:101090000E94C501181619060CF093C01A82198215
:1010A0001C821B821E821D8270E060E0CE010196D0
:1010B0000E945A0429813A8181112EC021153105DF
:1010C00019F0C9010E94180A1A8219821E821D8213
:1010D0001C821B820E9477010D811E8197FD24C016
:1010E0008A30910509F18F8318860F5F1F4FB80171
:1010F000CE0101960E945A04882361F329813A8126
:101100008D819E81BE01695F7F4F820F931F0E9478
:10111000700B1E830D83DECF1E821D826BE971E092
:10112000C9010E94700BD6CFC980DA80C114D104E6
:1011300029F076010115110509F050C08D819E81BD
:10114000892B09F481C009811A816FE471E0C8011B
:101150000E94670B892B41F061E571E0C8010E9494
:10116000670B892B09F070C040E061E08CE193E0EF
:101170000E949B04C5010197F1F780E00E94B20430
:1011800063E571E08CE193E00E944B0481E00E94F2
:10119000B2046CE571E08CE193E00E944B0467E6D9
:1011A00071E083E792E00E944B0469E971E083E714
:1011B00092E00E944B0489819A81009711F00E946D
:1011C000180A6114710409F461CF0E94D1018823C7
:1011D00009F45CCF0E94000059CF740147018FEFE2
:1011E000881A980AF7018081082E000C990B0E943A
:1011F0003309892B91F7015011090C0D1D1DF801C0
:101200008081082E000C990B0E943309892B31F044
:101210000E151F0518F001501109F1CF0F5F1F4F78
:10122000A8014E195F095E834D83CE14DF0420F4BC
:10123000B701C6010E945E0BE981FA818D819E8112
:10124000E80FF91F10827ACF6CE971E083E792E032
:101250000E944B044D815E8169817A8183E792E02F
:101260000E942701A2CF91110C943C09803219F001
:1012700089508550C8F708959927882708952F9297
:101280003F924F925F926F927F928F929F92AF9216
:10129000BF92CF92DF92EF92FF920F931F93CF9363
:1012A000DF93CDB7DEB7CA1BDB0B0FB6F894DEBFFA
:1012B0000FBECDBF09942A88398848885F846E8420
:1012C0007D848C849B84AA84B984C884DF80EE806A
:1012D000FD800C811B81AA81B981CE0FD11D0FB673
:1012E000F894DEBF0FBECDBFED010895EE0FFF1FD6
:1012F0000590F491E02D09940F931F93CF93DF9302
:101300008230910510F482E090E0E0912A03F091A0
:101310002B0330E020E0B0E0A0E0309799F42115F5
:10132000310509F44AC0281B390B24303105D8F5A2
:101330008A819B816115710589F1FB019383828309
:10134000FE0111C040815181028113814817590764
:10135000E0F04817590799F4109761F012960C9332
:10136000129713961C933296CF01DF91CF911F9164
:101370000F91089500932A0310932B03F4CF2115A6
:10138000310551F04217530738F0A901DB019A01EA
:10139000BD01DF01F801C1CFEF01F9CF90932B031D
:1013A00080932A03CDCFFE01E20FF31F8193919327
:1013B0002250310939832883D7CF209128033091D7
:1013C0002903232B41F42091020130910301309332
:1013D0002903209328032091000130910101211558
:1013E000310541F42DB73EB74091040150910501FC
:1013F000241B350BE0912803F0912903E217F30732
:10140000A0F42E1B3F0B2817390778F0AC014E5F74
:101410005F4F2417350748F04E0F5F1F5093290385
:1014200040932803819391939FCFF0E0E0E09CCF1D
:10143000CF93DF930097E9F0FC0132971382128279
:10144000A0912A03B0912B03ED0130E020E010972A
:10145000A1F420813181820F931F209128033091C4
:1014600029032817390709F061C0F0932903E09395
:101470002803DF91CF910895EA01CE17DF07E8F541
:101480004A815B819E0141155105B1F7E901FB835A
:10149000EA8349915991C40FD51FEC17FD0761F4F8
:1014A000808191810296840F951FE9019983888339
:1014B000828193819B838A83F0E0E0E012968D9194
:1014C0009C9113970097B9F52D913C911197CD01FF
:1014D0000296820F931F2091280330912903281729
:1014E000390739F6309751F510922B0310922A03E1
:1014F000B0932903A0932803BCCFD383C283408138
:101500005181840F951FC817D90761F44E5F5F4F53
:1015100088819981480F591F518340838A819B811B
:10152000938382832115310509F0B0CFF0932B030B
:10153000E0932A039ECFFD01DC01C0CF138212820B
:10154000D7CFB0E0A0E0E7EAFAE00C9441098C01C3
:10155000009751F4CB010E947C098C01C801CDB7E2
:10156000DEB7E0E10C945D09FC01E60FF71F9C017A
:1015700022503109E217F30708F49DC0D901CD913B
:10158000DC911197C617D70798F0C530D10530F315
:10159000CE0104978617970708F3C61BD70B22972F
:1015A000C193D1936D937C93CF010E94180AD6CF3B
:1015B0005B01AC1ABD0A4C018C0E9D1EA0912A0342
:1015C000B0912B03512C412CF12CE12C109731F5CB
:1015D00080912803909129038815990509F05CC032
:1015E0004616570608F058C08091000190910101FD
:1015F000009741F48DB79EB74091040150910501C9
:10160000841B950BE817F90708F055C0F0932903E0
:10161000E0932803F90171836083A0CF8D919C91A1
:10162000119712966C90129713967C901397A815A9
:10163000B90559F56C0142E0C40ED11CCA14DB0493
:1016400020F1AC014A195B09DA011296159780F076
:101650006282738251834083D9016D937C93E1143C
:10166000F10471F0D7011396FC93EE93129776CFA5
:1016700022968C0F9D1FF90191838083F301EFCF98
:10168000F0932B03E0932A0369CF4816590608F418
:101690002C017D01D3019ACFCB010E947C097C01F2
:1016A000009749F0AE01B8010E945E0BC8010E948C
:1016B000180A870153CF10E000E050CFFB01DC0196
:1016C00002C001900D9241505040D8F70895FB019F
:1016D000DC018D91019080190110D9F3990B0895C7
:1016E000FB01DC0101900D920020E1F70895F894D0
:1016F000FFCF00002C0380000000400014005400C5
:10170000000000000702270154015402C5016301D3
:10171000B70100000000320305034804DB02FE02AB
:10172000EB02DC0200000000E3042701480474021D
:10173000416775617264616E646F20736974652EB0
:1017400000560076004F20636F6469676F0066750E
:101750006E63696F6E6F7521004D656E73616765AD
:101760006D20274F20636F6469676F2066756E6315
:10177000696F6E6F75272065786962696461206E94
:101780006F20646973706C617921000D0A00436FEA
:101790006D616E646F2069676E6F7261646F3A206D
:0217A000000047
:107E0000112484B714BE81FFF0D085E080938100F7
:107E100082E08093C00088E18093C10086E0809377
:107E2000C20080E18093C4008EE0C9D0259A86E02C
:107E300020E33CEF91E0309385002093840096BBD3
:107E4000B09BFECF1D9AA8958150A9F7CC24DD24C4
:107E500088248394B5E0AB2EA1E19A2EF3E0BF2EE7
:107E6000A2D0813461F49FD0082FAFD0023811F036
:107E7000013811F484E001C083E08DD089C08234E0
:107E800011F484E103C0853419F485E0A6D080C0E4
:107E9000853579F488D0E82EFF2485D0082F10E0AE
:107EA000102F00270E291F29000F111F8ED06801E7
:107EB0006FC0863521F484E090D080E0DECF843638
:107EC00009F040C070D06FD0082F6DD080E0C81688
:107ED00080E7D80618F4F601B7BEE895C0E0D1E017
:107EE00062D089930C17E1F7F0E0CF16F0E7DF06D8
:107EF00018F0F601B7BEE89568D007B600FCFDCFD4
:107F0000A601A0E0B1E02C9130E011968C91119780
:107F100090E0982F8827822B932B1296FA010C0160
:107F200087BEE89511244E5F5F4FF1E0A038BF0790
:107F300051F7F601A7BEE89507B600FCFDCF97BE46
:107F4000E89526C08437B1F42ED02DD0F82E2BD052
:107F50003CD0F601EF2C8F010F5F1F4F84911BD097
:107F6000EA94F801C1F70894C11CD11CFA94CF0C13
:107F7000D11C0EC0853739F428D08EE10CD085E9AC
:107F80000AD08FE07ACF813511F488E018D01DD067
:107F900080E101D065CF982F8091C00085FFFCCF94
:107FA0009093C60008958091C00087FFFCCF809118
:107FB000C00084FD01C0A8958091C6000895E0E648
:107FC000F0E098E1908380830895EDDF803219F02E
:107FD00088E0F5DFFFCF84E1DECF1F93182FE3DFCA
:107FE0001150E9F7F2DF1F91089580E0E8DFEE27F6
:047FF000FF270994CA
:027FFE00040479
:00000001FF
